:020000040000FA
:060000009FEF36F0000C3A
:08000800056ED8CF06F0E0CF31
:1000100007F00001E9CF0DF0EACF08F0E1CF09F0D9
:10002000E2CF0AF0D9CF0BF0DACF0CF0F3CF14F017
:10003000F4CF15F0FACF16F000C00FF001C010F0A9
:1000400002C011F003C012F004C013F0F2AA2CEFAA
:1000500000F0F2B4FCEF00F00FC000F010C001F0AF
:1000600011C002F012C003F013C004F00E8E0DC0D8
:10007000E9FF08C0EAFF09C0E1FF0AC0E2FF0BC0C8
:10008000D9FF0CC0DAFF14C0F3FF15C0F4FF16C08F
:10009000FAFF055007C0E0FF06C0D8FF1000F2CFFE
:1000A0000EF0F29EF76AB80FF66E000EF722090006
:1000B000F5500EBEF28E1200485454502F312E309F
:1000C00020254C552000F2CF0EF0F29EF76AE00F8B
:1000D000F66E000EF7220900F5500EBEF28E1200E9
:1000E0004E6F7420666F756E6400F2CF0EF0F29E54
:1000F000F76A040FF66E010EF7220900F5500EBEE6
:10010000F28E1200536572766572204572726F72BC
:100110000000F2CF0EF0F29EF76A2C0FF66E010E81
:10012000F7220900F5500EBEF28E12000D0A436F41
:100130006E74656E742D547970653A200000F2CFAC
:100140000EF0F29EF76A580FF66E010EF7220900C4
:10015000F5500EBEF28E1200746578742F68746DBF
:100160006C00F2CF0EF0F29EF76A7C0FF66E010E75
:10017000F7220900F5500EBEF28E12000D0A0D0A8C
:100180000000F2CF0EF0F29EF76A9C0FF66E010EA1
:10019000F7220900F5500EBEF28E1200280C01065F
:1001A000F2CF0EF0F29EF76ABA0FF66E010EF7224A
:1001B0000900F5500EBEF28E12003C423E414E3018
:1001C000203D203C2F423E3078255800F2CF0EF0E3
:1001D000F29EF76AE60FF66E010EF7220900F5505F
:1001E0000EBEF28E120050494348545450204348EA
:1001F0004F52412046490000502AD8B4512A532A70
:100200005350090802E2522A536A850ED76EED0E4A
:10021000D66EF2942CEF00F03C48544D4C3E3C42DC
:100220004F44593E3C48313E343034204572726F61
:10023000723C2F48313E3C48523E3C503E46696C31
:1002400065204E6F7420666F756E642E3C2F424F92
:1002500044593E3C2F48544D4C3E00003C48544DC0
:100260004C3E3C424F44593E3C48313E35303020B4
:100270004572726F723C2F48313E3C48523E3C50B2
:100280003E496E7465726E616C205365727665725C
:10029000204572726F723C2F424F44593E3C2F48AA
:1002A000544D4C3E0000200A3C48544D4C3E3C42CC
:1002B0004F4459204247434F4C4F523D23464646F8
:1002C00046464620544558543D2330303030303077
:1002D0003E200A3C494D47205352433D22687474E6
:1002E000703A2F2F7777772E73656E61616C766524
:1002F000732E636F6D2F63686F72612E706E67224D
:100300003E3C503E200A3C48313E50494320485430
:100310005450202D2043484F52412046492021214E
:10032000213C2F48313E200A3C464F524D204D453E
:1003300054484F443D4745543E200A3C503E4C43B0
:10034000443A203C494E50555420545950453D2282
:100350007465787422204E414D453D226C636422C1
:100360002073697A653D3230206D61786C656E6707
:1003700074683D31363E200A3C42523E4C45443181
:100380003A3C494E50555420747970653D22726153
:1003900064696F22206E616D653D226C6564312257
:1003A0002076616C75653D313E4F4E20266E62733E
:1003B000703B20266E6273703B20266E6273703B2A
:1003C000200A3C494E50555420747970653D227284
:1003D0006164696F22206E616D653D226C656431D8
:1003E000222076616C75653D3020636865636B65BE
:1003F000643E4F4646200A3C42523E3C494E5055D0
:100400005420545950453D227375626D6974223EE3
:100410003C2F464F524D3E200A3C503E3C41204826
:100420005245463D222F616E616C6F67223E416EE0
:10043000616C6F672052656164696E67733C2F4120
:100440003E200A3C2F424F44593E3C2F48544D4CCD
:100450003E200A00200A3C48544D4C3E3C424F444A
:1004600059204247434F4C4F523D2346464646464D
:100470004620544558543D233030303030303E20F3
:100480000A3C494D47205352433D22687474703AE8
:100490002F2F7777772E73656E61616C7665732E7B
:1004A000636F6D2F63686F72612E706E67223E3CC2
:1004B000503E200A3C48313E4C454954555241205B
:1004C000414E414CD3474943413C2F48313E200ADD
:1004D0003C503E2530200A3C42523E2531200A3C09
:1004E000503E3C4120485245463D222F223E4C433F
:1004F000442F4C4544733C2F413E200A3C2F424F31
:1005000044593E3C2F48544D4C3E200A0000030EF7
:10051000EA6E2F0EE96EEF500DE0060E016E006AD6
:10052000002EFED7012EFBD77B0E006E002EFED7CD
:10053000EF2EF3D7000C030136B102D0899A01D017
:10054000898A929A36B302D0899801D08988929884
:1005500036B502D0899601D08986929636B702D0F8
:10056000899401D089849294000096908D80030E26
:10057000006E002EFED796908D900001000C0301B6
:10058000376B96908D800000928A379180BA3781C0
:100590009288379380B837839286379580B63785AF
:1005A0009284379780B4378796908D9037C301F047
:1005B0000001000C96928D820000E1DF01C036F34D
:1005C000DEDF01C035F303013639006EF00E001690
:1005D00000503511016E0001F1EF02F096948D94F8
:1005E000E9D701C035F3030101AE02D00001F8D70D
:1005F000335303E096948D8402D096948D9400003A
:1006000096928D92000096908D903439356F0F0E32
:10061000351735C336F300018EDF030134510F0B5C
:10062000356F366F000187DF000C96948D9496929B
:100630008D9296908D900F0E03012F6F000167DF52
:100640000301026B025102080CE3030E366F000136
:1006500072DF050E03012F6F000159DF0301022B2A
:10066000F1D7020E366F000166DF0301026B025103
:10067000030812E3036A0251F2CF03F3F29E000172
:1006800080DD030103BFF28E046F336B346F000112
:10069000A5DF0301022BEBD70001F6EF38F00301D1
:1006A000302D01D003D0400E316F01D0316B010EDF
:1006B0002F5D312731518009326F336B346F000168
:1006C0008DDF000C03012E510C0A000105E0060A23
:1006D0000FE0020A15E01BD00301336B010E346FEB
:1006E00000017CDF020E03012F6F000110DF17D025
:1006F000010E03012F6F020E306F0001D0DF0FD00B
:100700000301336B100E346F000168DF08D0010E57
:100710000301336F2EC334F3000160DF00D0000CFF
:100720001C6A020E1D6E030E1E6E040E1F6E050E59
:10073000206E060E216E16EF39F0C00E186EA80E50
:10074000196E010E1A6E0A0E1B6EC00E266EA80ED2
:10075000276E010E286E296EFF0E226E236E246E08
:10076000256A18EF39F0830ED56E850ED76EED0E23
:10077000D66EF28AC00EF21235EF08F0860E956E34
:10078000959A8C9A958E95988C8895968C864DEF37
:1007900005F00301BC6BBC51070814E3D890BB37CC
:1007A00002E28C9C01D08C8C959C959A8C8A958EBB
:1007B00083BE02D0D89001D0D880BD37959A8C9A4C
:1007C000BC2BE9D7BDC301F00001000C95988C98B3
:1007D000B0C3B2F3B0C3BBF30001DBDF0301BB6BFB
:1007E0000001D7DF01C0B1F395988C880301B1C334
:1007F00001F00001000C95988C98FF0E0301BB6F6F
:100800000001C7DF95988C8862EF05F095988C9869
:100810000301B6514009B86FBB6F0001BADFB7C31F
:10082000BBF3B7DF95988C88000C95988C980301E2
:10083000B551A009B76FBB6F0001ABDFB6C3BBF307
:10084000A8DF95988C88000C95988C980301B85176
:100850008009BA6FBB6F00019CDFB9C3BBF399DF9E
:1008600095988C88000C1F0E0301B56F030EB66FB0
:100870000001DBDF030E0301B66FB30EB56F010E8F
:10088000B525E96E000EB621EA6EEFCFB7F31F0E65
:10089000B86FB7C3B9F30001D7DF000C95988C98F7
:1008A0000AC30CF30AC3BBF3000173DF0301BB6B84
:1008B00000016FDF0301BB6B00016BDF01C00BF3B5
:1008C00095988C8803010BC301F00001000C020E07
:1008D0000301B46F140EB36F0001C5DF140E0301E2
:1008E000B66F07C3B7F3000191DF030E03010B6F6F
:1008F000080EE96E0BC3EAFFEFCF0CF3160EB66FCE
:100900000CC3B7F3000182DF030E03010B6F080E67
:100910000A6F010E0A25E96E000E0B21EA6EEFCF79
:100920000CF3170EB66F0CC3B7F300016FDF030EA5
:100930000301B46F0A0EB36F000195DF0A0E0301C5
:100940000A6F0001ABDF01C00AF3000E030101B022
:10095000010E000AD8B402D00001F0D70001000C4B
:10096000020E0301B46F140EB36F00017CDF140E8E
:100970000301B66F07C3B7F3000148DF120E03018E
:10098000B66F010EB76F000141DF030E0301B46FB4
:100990000A0EB36F000167DF0A0E03010A6F000140
:1009A0007DDF01C00AF3000E030101B0010E000A51
:1009B000D8B402D00001F0D7020EB46F140EB36F9A
:1009C000000151DF120E0301B66FB76B00011EDF8D
:1009D000180E03010A6F000161DF01C008F3190E50
:1009E00003010A6F00015ADF01C009F3030108C3C4
:1009F00001F009C302F0000109EF05F01F0E030129
:100A0000B56F0C0EB66F000110DF0301076B00011C
:100A1000A7D702C006F301C005F303010351020882
:100A200004E1036B06B1032B0BD0069103B10681E1
:100A3000076B06C309F305C308F3000148DF030190
:100A4000020EB46FB36F00010EDF020E03010A6FD6
:100A5000000124DF01C004F30301049103B1048108
:100A6000020EB66F04C3B7F30001D0DE03010353D7
:100A700002E0150E01D0120E076F040EB66F07C309
:100A8000B7F30001C3DE1F0E0301B86F040EB96F88
:100A90000001DADE2AEF06F071D61D0E0301B06FF9
:100AA000000194DE01C002F3030102A702D000019D
:100AB000F4D70251FF0A010BD8B402D00001EDD7E0
:100AC000000199D6010E03012F6F000120DD4F6A4E
:100AD0005880556A546A080E0301B66FB76B00015F
:100AE00095DE090E0301B66FB76B00018FDE0C0EA9
:100AF0000301B66FF70EB76F000188DE0D0E03011C
:100B0000B66F1B0EB76F000181DE0A0E0301B66FD0
:100B1000F70EB76F00017ADE0B0E0301B66F1B0EE6
:100B2000B76F000173DE040E0301B66FF80EB76FE6
:100B300000016CDE050E0301B66F1B0EB76F0001DE
:100B400065DE020E0301B46FB36B00018CDE03019E
:100B5000B66B0D0EB76F000159DE020E0301B66FC2
:100B6000320EB76F000152DE030E0301B66F400E66
:100B7000B76F00014BDE090E0301B66F3F0EB76F72
:100B8000000144DE060E0301B66F120EB76F0001BE
:100B90003DDE070E0301B66F0C0EB76F000136DEA7
:100BA0000A0E0301B66FEE0EB76F00012FDE0B0EBB
:100BB0000301B66F050EB76F000128DE030E0301B7
:100BC000B46F040EB36F00014EDE040E0301B66F66
:100BD0001CC0B7F300011ADE050E0301B66F1DC07D
:100BE000B7F3000113DE020E0301B66F1EC0B7F3A8
:100BF00000010CDE030E0301B66F1FC0B7F3000146
:100C000005DE0301B66B20C0B7F30001FFDD010E66
:100C10000301B66F21C0B7F30001F8DD120E030126
:100C2000B06F0001D3DD01C059F0100E0301076F52
:100C3000010E096F086B00014ADE140E0301076FF5
:100C4000040E096F720E086F000141DE0301036B91
:100C50000001D4D61F0E0301B86F040EB96F000156
:100C6000F3DD36EF08F05892FF0E0101156F166F95
:100C7000176F186F196F1A6F1E6B1D6B1C6B1B6B38
:100C8000000137EF08F008C34EF007C34DF006C36C
:100C90004CF005C34BF062EF07F003010D6B0E6BD8
:100CA000010E0F6FDA6AD96A030E126F050E116F0B
:100CB000030EEA6E090EE96E12C3E2FF11C3E1FFF3
:100CC0000FC310F3D890E550EE02F3500D23F4500B
:100CD0000E23102FF7D70DC3DEFF0EC30DF30E6BDF
:100CE000D8B00E2B112BD8B4122B0F2B0F51050897
:100CF000DFE10001B3EF06F0016A026A006A036AED
:100D000003010B5102E10A5118E0100E0C6FD8904C
:100D100008370937003603360B51035C02E10A51EC
:100D2000005C07E30A51005ED8A003060B51035E86
:100D3000D880013602360C2FEAD70001D4EF06F036
:100D40004EC008F34DC007F34CC006F34BC005F38B
:100D5000410E03010C6FC60E0B6F4E0E0A6F6D0E27
:100D6000096F00019AD7390E030100244B6E300E33
:100D700001204C6E000E02204D6E000E03204E6EC0
:100D80004DC000F04EC001F0026A036A4EC007F386
:100D90004DC006F34EC009F34DC008F37F0E0B6F34
:100DA000FF0E0A6F0001A8D700C001F003C002F0D7
:100DB00063EF07F00301026B0251040869E302517B
:100DC000240DF350036A5F0F016E000E032201C071
:100DD00003F303C004F303C3E9FF04C3EAFF0A0EED
:100DE000EF6E230E0325E96E000E0421EA6EEF90EC
:100DF000230E0325E96E000E0421EA6EEF82230E16
:100E00000325E96E000E0421EA6EEF84230E03250C
:100E1000E96E000E0421EA6EEF98230E0325E96EB9
:100E2000000E0421EA6EEF960F0E0325E96E000E08
:100E30000421EA6EEF3C01D016D00F0E0325E96EB7
:100E4000000E0421EA6EEFCF05F305C355F3000150
:100E500002EC00F00F0E03010325E96E000E0421E1
:100E6000EA6EFF0EEF6E210E0325E96E000E0421DF
:100E7000EA6EEC6AED521E0EEF6E100E0325E96E5F
:100E8000000E0421EA6EEC6AED52EF6A022B94D751
:100E9000D65001011327D7501423CE501327CF501B
:100EA0001423CC501327000E1423B2501327B35031
:100EB00014230301086B076B14C106F313C105F378
:100EC0000001E1D63DD702C05EF001C05DF0040E26
:100ED0005E265E5012080AE2FF0A03E15D508708B1
:100EE00005E2880E5D5E130E5E5AF3D75E5003086E
:100EF00002E3040E5E2638EF08F00301076B07518A
:100F0000040874E30751240DF350036A5F0F016E68
:100F1000000E032201C008F303C009F308C3E9FF70
:100F200009C3EAFFEF500A085FE108C3E9FF09C3FC
:100F3000EAFFEF6A0B0E0825E96E000E0921EA6E42
:100F400006C3ECFFED5205C3EFFF0D0E0825E96E59
:100F5000000E0921EA6EEC6AED52EF6A070E0825D1
:100F6000E96E000E0921EA6EEE52EE52EC6AED5285
:100F7000EF6AED52EF6AED52EF6A230E0825E96E33
:100F8000000E0921EA6EEF80230E0825E96E000E9F
:100F90000921EA6EEF960F0E0825E96E000E092171
:100FA000EA6EEF3C01D016D00F0E0825E96E000E58
:100FB0000921EA6EEFCF0AF30AC355F3000102ECF0
:100FC00000F00F0E03010825E96E000E0921EA6EFC
:100FD000FF0EEF6E230E0825E96E000E0921EA6E62
:100FE000EF8207C301F004D0072B89D7FE0E016EF4
:100FF00000010EEF08F00301026B02532EE1036AB9
:1010000002511F0F016E010E032201C003F303C042
:1010100004F3066B500E056F00016FD704C3EAFF9F
:1010200003C3E9FF01C0EFFF036A030102511F0F71
:10103000E96E010E0320EA6EEF50FE080CE0D89036
:101040000235036A200FE96E010E0320EA6E010EDD
:10105000EC6EED52EF6E022BD0D7000139EF08F0A5
:101060000201776B0001B3EF03F016D5FCD5A2D6D1
:10107000C2D71AEF39F058A001D032D05880010EF3
:10108000545C0301546F000E5558556F55511A08A2
:1010900009E2FF0A03E15451F70804E21B0E556F01
:1010A000F70E546F1E0EB86F400EB96F000124EC9E
:1010B00004F00301B46B0C0EB36F000133EC04F0C9
:1010C0000C0E0301B66F54C3B7F3000106EC04F035
:1010D0000D0E0301B66F55C3B7F3000106EC04F023
:1010E000000C0301A36BA46B95988C983A0EBB6F10
:1010F0000001C9EC03F00301A451A25D1CE303E16C
:10110000A151A35D18E2A0C303F09FC3A5F3A0C340
:10111000A6F3BB6B0001C9EC03F0A6C3EAFFA5C3AD
:10112000E9FF01C0EFFF03019F2BD8B4A02BA32B35
:10113000D8B4A42BE1D795988C88A3C301F0A4C39D
:1011400002F00001000CB1C3B2F3B0C3B3F303016A
:10115000B2C301F0B3C302F00001000C010E0301A1
:10116000B46F190EB36F000133EC04F0190E0301D4
:10117000B06F0001E6EC03F001C020F3030120533F
:1011800003E1000E016E82D058B006D0000173DF7B
:10119000000E016E03017AD055C057F054C056F0CE
:1011A000B46BB36B000133EC04F00301B66B54C0B5
:1011B000B7F3000106EC04F0010E0301B66F55C051
:1011C000B7F3000106EC04F0030E0301216F0C0ECF
:1011D00021C3A0F39F6FA26B140EA16F000181DFEA
:1011E0001FC3B1F31EC3B0F3AEDF02C01FF301C0D3
:1011F0001EF303010D511A0805E2FF0A19E10C5113
:10120000F70816E3030E216F0C0EE96E21C3EAFF07
:10121000EFB00ED011BF0CD010B90AD00F51040896
:1012200005E2FF0A05E10E51EE0802E310BF01D00E
:10123000FF000DC355F00CC354F008C320F309C3DD
:1012400021F309C3EAFF08C3E9FF030EE26E180E9B
:10125000E16E060E016EE6CFEEFF012EFCD70AC34B
:10126000E9FF0BC3EAFFFF0EEF6E1F5108080BE109
:101270001E5303E01E51060806E10AC3E9FF0BC333
:10128000EAFF1EC3EFFF5890010E016E0001BBEF95
:1012900035F0030133C301F034C303F033C335F336
:1012A00034C336F333C3E9FF34C3EAFFECCF38F37A
:1012B000ED52EFCF37F338C3B1F337C3B0F30001CA
:1012C00042DF36C3EAFF35C3E9FF02C0ECFFED524F
:1012D00001C0EFFF020E03013325016E000E342121
:1012E000036E01C035F3366F020E3325E96E000E32
:1012F0003421EA6EECCF38F3ED52EFCF37F338C339
:10130000B1F337C3B0F300011EDF36C3EAFF35C3C4
:10131000E9FF02C0ECFFED5201C0EFFF060E030132
:101320003325016E000E3421036E01C035F3366F94
:10133000060E3325E96E000E3421EA6EECCF38F349
:10134000ED52EFCF37F338C3B1F337C3B0F3000139
:10135000FADE36C3EAFF35C3E9FF02C0ECFFED5207
:1013600001C0EFFF000C030E0301A06F170E9F6F6B
:10137000A26B1C0EA16F0001B4DE7DDE030E030123
:10138000346F170E336F000184DF0301172D08D06F
:10139000185306E11B51060803E11C51040803E041
:1013A000000E016E4ED01D51020808E11E5306E1E9
:1013B00015C3E9FF16C3EAFFEF6A14D01D2D09D04B
:1013C0001E5307E115C3E9FF16C3EAFF010EEF6ED6
:1013D00009D015C3E9FF16C3EAFF020EEF6E000E37
:1013E000016E2FD018502F5D29E11950305D26E194
:1013F0001A50315D23E11B50325D20E113C3E9FF38
:1014000014C3EAFF030EE26E1F0EE16E060E016EBC
:10141000E6CFEEFF012EFCD7060E1325E96E000E77
:101420001421EA6E25C3EFFF26C3ECFF27C3ECFFB0
:1014300028C3ECFF010E016E04D003D0000E016E34
:1014400000D0000117EF0DF01F0E0301B06F000177
:10145000E6EC03F001C092F3000E030101B6010EA9
:10146000000A02E1000E01D0FF0E016E00D0000163
:10147000000CAAC34FF0070E0301AB271C0EAC23D0
:10148000B46B020EB36F000133EC04F0030E0301E2
:10149000AE6FAB0EE96EAEC3EAFFEFCFAFF3B66B44
:1014A000AFC3B7F3000106EC04F0030E0301AE6F07
:1014B000AB0EAD6F010EAD25E96E000EAE21EA6EEA
:1014C000EFCFAFF3010EB66FAFC3B7F3000106EC79
:1014D00004F0030E0301AE6FAB0EE96EAEC3EAFF7C
:1014E000EFCFAFF3020EB66FAFC3B7F3000106EC58
:1014F00004F0030E0301AE6FAB0EAD6F010EAD2510
:10150000E96E000EAE21EA6EEFCFAFF3030EB66FB9
:10151000AFC3B7F3000106EC04F0000C95988C986B
:101520007A0E0301BB6F0001C9EC03F0B4C3BBF337
:10153000C9EC03F095988C88000C95988C987A0EDD
:101540000301BB6F0001C9EC03F00301B8C303F052
:10155000B751D8B4B807B707031012E0B6C303F009
:10156000B5C3E9FFB6C3EAFFEFCFB9F3B9C3BBF325
:101570000001C9EC03F00301B52BD8B4B62BE6D7B4
:1015800095988C880001000C0301B46B020EB36FB8
:10159000000133EC04F0020E0301B66FF80EB76FD2
:1015A000000106EC04F0030E0301B66F1B0EB76FCB
:1015B000000106EC04F0060E0301B1271C0EB22355
:1015C000030EB46FB10EE96EB4C3EAFFEFCFB5F30B
:1015D000060EB66FB5C3B7F3000106EC04F0030EB8
:1015E0000301B46FB10EB36F010EB325E96E000EA7
:1015F000B421EA6EEFCFB5F3070EB66FB5C3B7F3FC
:10160000000106EC04F00301B46B000187DFAFC3F7
:10161000B6F3AEC3B5F30301B86B060EB76F0001A6
:101620008CDF0301B46B1C0EB4C3B6F3B56FB86B9B
:10163000060EB76F000181DF080E0301B46F0001D1
:101640006DDF0301B05302E1000E01D0060EB46F4E
:10165000000164DF000C1C0E0301B06F0001E6EC1A
:1016600003F001C09DF3000E030101B2010E000A58
:1016700010E01F0EB86F800EB96F000124EC04F06B
:101680001F0E0301B56F800EB66F000115EC04F05C
:1016900003011C0EB56F0A0EB66F000115EC04F0C5
:1016A0001F0E0301B86F080EB96F000124EC04F09F
:1016B00059500508D8A4E0D01C0E0301B06F0001FA
:1016C000E6EC03F001C09DF3030101500A0BD8A41E
:1016D00002D00001F1D71C0EB06F0001E6EC03F060
:1016E00001C09DF3000E030101B2010E000AD8B43F
:1016F000C4D01F0EB56F080EB66F000115EC04F0D4
:101700000301B46BB36B000133EC04F00301B06B65
:101710000001E6EC03F001C091F3010E0301B06F8C
:101720000001E6EC03F001C092F3060E0301B06F76
:101730000001E6EC03F001C093F3070E0301B06F64
:101740000001E6EC03F001C094F30301932BD8B43D
:10175000942BB66B93C3B7F3000106EC04F0010EB3
:101760000301B66F94C3B7F3000106EC04F0030E57
:1017700003019E6F950E9EC3A0F39F6FA26B070E91
:10178000A16F0001AEDC03019C6B9C510F0866E366
:101790001C0EB06F0001E6EC03F001C09DF3000EDB
:1017A000030101B2010E000A54E098AB52D01F0EA3
:1017B000B86F800EB96F000124EC04F01F0E030116
:1017C000B56F800EB66F000115EC04F01C0E03011E
:1017D000B56F0A0EB66F000115EC04F01F0E030181
:1017E000B86F080EB96F000124EC04F01C0E030161
:1017F000B06F0001E6EC03F001C09DF3030101505E
:101800000A0BD8A402D00001F1D71F0EB56F080E45
:10181000B66F000115EC04F00301B66B93C3B7F388
:10182000000106EC04F0010E0301B66F94C3B7F398
:10183000000106EC04F0030E03019E6F950E9EC39B
:10184000A0F39F6FA26B070EA16F00014ADC03D0CB
:10185000030104D0000103019C2B97D7B66B91C301
:10186000B7F3000106EC04F0010E0301B66F92C35A
:10187000B7F3000106EC04F003010001000C010EB7
:101880000301916F0001E0DD01C032F30301323D3D
:1018900003D0000E016EB7D032C3AAF3AC6BAB6BB2
:1018A0000001E7DD0301176B010E166F080E196FBB
:1018B000186B060E1A6F040E1B6F152D0BD01D6BC7
:1018C000010E1C6FFF0E286F296F2A6F2B6F2C6F74
:1018D0002D6F17D01D6B020E1C6F14C303F013C3C2
:1018E00033F314C334F3030EEA6E280EE96E14C307
:1018F000E2FF13C3E1FF060E016EE6CFEEFF012EFD
:10190000FCD7030EEA6E1E0EE96EE26A1C0EE16E53
:10191000060E016EE6CFEEFF012EFCD71BC027F3AB
:101920001AC026F319C025F318C024F3060E132598
:10193000E96E000E1421EA6EEFCF00F0ECCF01F05B
:10194000ECCF02F0ECCF03F000502419336F0150BC
:101950002519346F02502619356F03502719366F39
:1019600033512214006E34512314016E3551241466
:10197000026E36512514036E005206E1015204E155
:10198000025202E1035209E029C031F328C030F3CA
:1019900027C02FF326C02EF316D0060E1325E96EAE
:1019A000000E1421EA6EEFCF00F0ECCF01F0ECCF87
:1019B00002F0ECCF03F003C031F302C030F301C0FA
:1019C0002FF300C02EF3030E346F160E336F000199
:1019D00060DC030E0301AF6F280EAE6F060EB06F12
:1019E000B26B1C0EB16F0001CFDD030E0301B66FA9
:1019F000160EB56FB86B1C0EB76F00019EDD2BDEA7
:101A0000010E016E0301000143EF0DF0000E58B20C
:101A1000010E000A01E02FD0030E0301146F080E1F
:101A2000136F030E166F120E156F00019CD4015236
:101A300001E131D03BEC08F0030112531AE1010E31
:101A4000EA6E150EE96E030EE26E080EE16E060EEA
:101A5000016EE6CFEEFF012EFCD711C31EF110C3BD
:101A60001DF10FC31CF10EC31BF1000114D003D0F4
:101A7000030158820001030E0301146F080E136F57
:101A8000156B0001FCD6015202E0589203D0000E03
:101A9000016E03D000D0010E016ED7EF35F0140EA9
:101AA00056240301676F000E5720686F6151672548
:101AB000656F62516821666F66511A0809E2FF0A74
:101AC00003E16551F70804E2F80E655F1B0E665BE3
:101AD000B46B100EB36F000133EC04F0100E030171
:101AE000B66F65C3B7F3000106EC04F0110E0301F5
:101AF000B66F66C3B7F3000106EC04F0010E0301F4
:101B0000635D006E000E6459036E0050652703503C
:101B1000662366511A0809E2FF0A03E16551F708D6
:101B200004E2F80E655F1B0E665B120EB66F65C3AE
:101B3000B7F3000106EC04F0130E0301B66F66C3A1
:101B4000B7F3000106EC04F01F0E0301B86F300E6E
:101B5000B96F000124EC04F01F0E0301B06F000107
:101B6000E6EC03F001C067F3000E030101BA010EB9
:101B7000000AD8B402D00001EFD7160EB06F0001F2
:101B8000E6EC03F001C066F3170E0301B06F00012D
:101B9000E6EC03F001C065F3030165C301F066C321
:101BA00002F00001000C140E562403013E6F000EDB
:101BB00057203F6F3A513E253C6F3B513F213D6FCF
:101BC0003D511A0809E2FF0A03E13C51F70804E21B
:101BD000F80E3C5F1B0E3D5BB46BB36B000133EC46
:101BE00004F00301B66B3CC3B7F3000106EC04F04C
:101BF000010E0301B66F3DC3B7F3000106EC04F01C
:101C0000020E0301B66F3CC3B7F3000106EC04F00B
:101C1000030E0301B66F3DC3B7F3000106EC04F0F9
:101C2000000C020E0301AA25016E000EAB21036E0B
:101C300001C0ACF3AD6F020EAA25E96E000EAB2118
:101C4000EA6EECCFAFF3ED52EFCFAEF3AFC3B1F32B
:101C5000AEC3B0F30001A3EC08F0ADC3EAFFACC320
:101C6000E9FF02C0ECFFED5201C0EFFF040E0301DB
:101C7000AA25016E000EAB21036E01C0ACF3AD6F5F
:101C8000040EAA25E96E000EAB21EA6EECCFAFF38D
:101C9000ED52EFCFAEF3AFC3B1F3AEC3B0F300017B
:101CA000A3EC08F0ADC3EAFFACC3E9FF02C0ECFF50
:101CB000ED5201C0EFFF0A0E0301AA25016E000ECE
:101CC000AB21036E01C0ACF3AD6F0A0EAA25E96E1D
:101CD000000EAB21EA6EECCFAFF3ED52EFCFAEF3D7
:101CE000AFC3B1F3AEC3B0F30001A3EC08F0ADC3D2
:101CF000EAFFACC3E9FF02C0ECFFED5201C0EFFF09
:101D0000000C030E0301276F120E27C3A0F39F6F71
:101D1000A26B140EA16F000171EC08F003011251C7
:101D2000F00B400803E0000E016E58D012510F0B6B
:101D3000006E00345C6E5C36FC0E5C16626B616B90
:101D4000646B5CC063F30001AADE02C011F301C042
:101D500010F303013B6B5CC03AF3000124DF030185
:101D60001051111103E0000E016E38D0030EAB6F5D
:101D7000120EAA6F000155DF0301085109110CE092
:101D800008C3E9FF09C3EAFF22C3EFFF23C3ECFF47
:101D900024C3ECFF25C3ECFF060E0A25E96E000EF6
:101DA0000B21EA6E1EC3EFFF1FC3ECFF20C3ECFF45
:101DB00021C3ECFF0CC3E9FF0DC3EAFF1BC3EFFF18
:101DC0000EC3E9FF0FC3EAFF5C50145D006E000E06
:101DD000155900C0EFFFEC6E010E016E0001F0EF2F
:101DE00035F00301A26BA16BA06B9F6BD89096316D
:101DF000986F9531976F94C39AF393C399F398C3EF
:101E000003F09751D8B498079707031017E09AC3C7
:101E100003F099C300F0020E9927D8B09A2B00C0A6
:101E2000E9FF03C0EAFFECCF03F0ED52EF509F272C
:101E30000350A023000EA123A223E1D79551010B4B
:101E4000006E036A005003100AE099C3E9FF9AC3C9
:101E5000EAFFEF509F27000EA023A123A223A2C3D5
:101E60009EF3A1C39DF3A0C39CF39FC39BF39EC3AA
:101E700098F39DC397F3975302E198531FE0A26B29
:101E8000A16BA66BA56BA0C3A4F39FC3A3F3026AC7
:101E9000036A97519F259F6F9851A021A06F025010
:101EA000A521A16F0350A621A26FA2C39EF3A1C3D7
:101EB0009DF3A0C39CF39FC39BF3D9D7A0C303F0AA
:101EC000031E9F51FF0A016E03C002F00001000CC7
:101ED00095988C983A0E0301BB6F0001C9EC03F092
:101EE0000301BB6B0001C9EC03F001C095F39598A9
:101EF0008C88030195C301F00001000C030191538C
:101F000007E1925305E1FF0E016E026EA1D017D0DA
:101F1000912D15D0925313E10001DADF0301966B86
:101F200001C095F301C003F0000E006A0006001A1C
:101F3000FF0E031A00C001F003C002F089D0B46B99
:101F4000B36B000133EC04F00301B06B0001E6EC6D
:101F500003F001C093F3010E0301B06F0001E6EC42
:101F600003F001C094F3100E0301B66F93C3B7F3EF
:101F7000000106EC04F0110E0301B66F94C3B7F331
:101F8000000106EC04F0030194511B081BE303E17C
:101F90009351F70817E3010E915D006E000E925900
:101FA000036E005093270350942394511A0809E2BA
:101FB000FF0A03E19351F70804E2F80E935F1B0E4A
:101FC000945B0AD0010E915D006E000E9259036E73
:101FD0000050932703509423120EB66F93C3B7F3A8
:101FE000000106EC04F0130E0301B66F94C3B7F3BF
:101FF000000106EC04F01F0E0301B86F300EB96F3C
:10200000000124EC04F01F0E0301B06F0001E6ECA8
:1020100003F001C095F3000E030101BA010E000A9E
:10202000D8B402D00001EFD7160EB06F0001E6EC75
:1020300003F001C093F3170E0301B06F0001E6EC4B
:1020400003F001C094F3030193C301F094C302F0C1
:102050000001000C5C5003013625386F000E37215B
:10206000396F3B6F38C33AF300019DDD000C9CC310
:102070009DF39BC39EF39AC39FF399C3A0F39DC3A3
:1020800000F09EC301F09FC302F0A0C303F0000C58
:10209000030191C301F092C303F091C393F392C380
:1020A00094F391C3E9FF92C3EAFFECCF96F3ED52AC
:1020B000EFCF95F396C3B1F395C3B0F30001A3EC52
:1020C00008F094C3EAFF93C3E9FF02C0ECFFED52AE
:1020D00001C0EFFF020E03019125016E000E922157
:1020E000036E01C093F3946F020E9125E96E000E0A
:1020F0009221EA6EECCF96F3ED52EFCF95F396C3B3
:10210000B1F395C3B0F30001A3EC08F094C3EAFF68
:1021100093C3E9FF02C0ECFFED5201C0EFFF040ED4
:1021200003019125016E000E9221036E01C093F30D
:10213000946F040E9125E96E000E9221EA6EEFCFA6
:1021400095F3ECCF96F3ECCF97F3ECCF98F398C3DD
:102150009CF397C39BF396C39AF395C399F300013D
:1021600086DF94C3EAFF93C3E9FF00C0EFFF01C01D
:10217000ECFF02C0ECFF03C0ECFF080E0301912549
:10218000016E000E9221036E01C093F3946F080E4E
:102190009125E96E000E9221EA6EEFCF95F3ECCF18
:1021A00096F3ECCF97F3ECCF98F398C39CF397C3D7
:1021B0009BF396C39AF395C399F3000158DF94C338
:1021C000EAFF93C3E9FF00C0EFFF01C0ECFF02C0CC
:1021D000ECFF03C0ECFF0E0E03019125016E000E13
:1021E0009221036E01C093F3946F0E0E9125E96E58
:1021F000000E9221EA6EECCF96F3ED52EFCF95F3FD
:1022000096C3B1F395C3B0F30001A3EC08F094C3F7
:10221000EAFF93C3E9FF02C0ECFFED5201C0EFFFFC
:10222000100E03019125016E000E9221036E01C074
:1022300093F3946F100E9125E96E000E9221EA6ED1
:10224000ECCF96F3ED52EFCF95F396C3B1F395C370
:10225000B0F30001A3EC08F094C3EAFF93C3E9FFD5
:1022600002C0ECFFED5201C0EFFF120E03019125F9
:10227000016E000E9221036E01C093F3946F120E53
:102280009125E96E000E9221EA6EECCF96F3ED52A5
:10229000EFCF95F396C3B1F395C3B0F30001A3EC70
:1022A00008F094C3EAFF93C3E9FF02C0ECFFED52CC
:1022B00001C0EFFF000CFE0E03013B6F3A6B3A5179
:1022C0000408D8A07AD03A51240DF350036A5F0F66
:1022D000016E000E032201C038F303C039F338C386
:1022E000E9FF39C3EAFFEF500A0865E00B0E382515
:1022F000E96E000E3921EA6EECCF3DF3ED52EFCFDF
:102300003CF3020E3425E96E000E3521EA6EECCF67
:1023100003F0ED52EF503C5D4EE103503D5D4BE16B
:1023200038C3E9FF39C3EAFFEF5202E13AC33BF396
:102330000D0E3825E96E000E3921EA6EECCF3DF323
:10234000ED52EFCF3CF334C3E9FF35C3EAFFECCFE6
:1023500003F0ED52EF503C5D2EE103503D5D2BE16B
:10236000070E3825E96E000E3921EA6EEFCF3EF3F5
:10237000ECCF3FF3ECCF40F3ECCF41F3060E362524
:10238000E96E000E3721EA6EEFCF00F0ECCF01F0DE
:10239000ECCF02F0ECCF03F000503E5D0CE10150B9
:1023A0003F5D09E10250405D06E10350415D03E1FC
:1023B0003AC301F06CD03A2B82D73B51FE0803E1BF
:1023C000FE0E016E64D03B51240DF350036A5F0F83
:1023D000016E000E032201C038F303C039F3010E71
:1023E00038253C6F000E39213D6FEA6E3CC3E9FF92
:1023F00037C3E2FF36C3E1FF0A0E016EE6CFEEFF00
:10240000012EFCD70D0E3825016E000E392134C384
:10241000E9FF35C3EAFFECCF03F0ED52EFCF3EF317
:10242000EA6E01C0E9FF03C0ECFFED523EC3EFFFCF
:10243000230E3825E96E000E3921EA6EEF960F0E55
:102440003825E96E000E3921EA6EEF3C01D016D036
:102450000F0E3825E96E000E3921EA6EEFCF3CF3FE
:102460003CC355F3000102EC00F00F0E03013825C8
:10247000E96E000E3921EA6EFF0EEF6E230E38254D
:10248000E96E000E3921EA6EEF823BC301F00001D4
:10249000C5EF1BF0F29A51C055F350C054F3F28AC5
:1024A000030154C301F055C302F00001000C0F0EEC
:1024B00003015225E96E000E5321EA6EEF3C01D074
:1024C0001DD00F0E5225E96E000E5321EA6EEFCF9C
:1024D00054F354C355F3000102EC00F00F0E030156
:1024E0005225E96E000E5321EA6EFF0EEF6E230EA9
:1024F0005225E96E000E5321EA6EEF82070E522537
:10250000E96E000E5321EA6EEE52EE52EC6AED5285
:10251000EF6AED52EF6AED52EF6A0D0E5225E96E49
:10252000000E5321EA6EEC6AED52EF6A230E52253B
:10253000E96E000E5321EA6EEFA604D000013BECD9
:1025400008F00301230E5225E96E000E5321EA6EB6
:10255000EF96210E5225E96E000E5321EA6EEC6AC9
:10256000ED521E0EEF6E230E5225E96E000E532122
:10257000EA6EEF98230E5225E96E000E5321EA6EA3
:10258000EFA006D052C3E9FF53C3EAFFEF6A06D0BB
:1025900052C3E9FF53C3EAFF0A0EEF6E100E522535
:1025A000E96E000E5321EA6EEC6AED52EF6A00010B
:1025B000000C1F0E0301B06F0001E6EC03F001C038
:1025C00092F3000E030101B6010E000A02E0000EB4
:1025D00001D0010E016E00D00001000C010E0301BC
:1025E000B46F190EB36F000133EC04F0190E030140
:1025F000B06F0001E6EC03F001C091F30301B46B8E
:102600000E0EB36F000133EC04F00E0E0301B06F39
:102610000001E6EC03F001C093F30F0E0301B06F6D
:102620000001E6EC03F001C094F3010E0301B46F66
:10263000190EB36F000133EC04F0190E0301B06FF3
:102640000001E6EC03F001C095F303019151015C38
:10265000D8B402D00001CAD7B46B0C0EB36F00011E
:1026600033EC04F00C0E0301B06F0001E6EC03F054
:1026700001C091F30D0E0301B06F0001E6EC03F011
:1026800001C092F303019251945D16E303E193516B
:10269000915D12E29151935D006E92519459036ED7
:1026A0000050FF0AF80F006E1B0E035600C001F029
:1026B00003C002F01DD01CD09151935D09E19251ED
:1026C000945D06E1F70E016E1B0E026E11D010D064
:1026D0009351915D956F94519259966F010E955D4E
:1026E000006E000E9659036E00C001F0026E00D01D
:1026F0000001BDEF14F0060E0301AA25B06F1C0EF9
:10270000AB21B16F010EB025AE6F000EB121AF6FDE
:10271000B46B100EB36F000133EC04F0100E030124
:10272000B66FAEC3B7F3000106EC04F0110E03015F
:10273000B66FAFC3B7F3000106EC04F0010E03015E
:10274000AC5D006E000EAD59036E0050AE27035015
:10275000AF23120EB66FAEC3B7F3000106EC04F060
:10276000130E0301B66FAFC3B7F3000106EC04F01C
:102770001F0E0301B86F300EB96F000124EC04F096
:102780001F0E0301B06F0001E6EC03F001C0B0F3CF
:10279000000E030101BA010E000AD8B402D00001F4
:1027A000EFD7160EB06F0001E6EC03F001C0AFF3F7
:1027B000170E0301B06F0001E6EC03F001C0AEF3A9
:1027C0000301AEC301F0AFC302F00001000C140E10
:1027D0005C6E450E0301966F976B140E9425986FEF
:1027E000000E9521996F5A2AD8B45B2A5BC09BF3DF
:1027F0005AC09AF39D6B9C6B640E9E6F93C39FF3BC
:10280000A16BA06B1BC0A5F31AC0A4F319C0A3F35E
:1028100018C0A2F3060E9125E96E000E9221EA6E11
:10282000EFCF00F0ECCF01F0ECCF02F0ECCF03F0F3
:1028300003C0A9F302C0A8F301C0A7F300C0A6F328
:10284000030EAB6F960EAA6F000111EC0EF00301A0
:1028500091C301F092C303F091C3AAF392C3ABF307
:10286000140E9425AC6F000E9521AD6F92C3AFF39B
:1028700091C3AEF3B06BB26FACC3B1F30001C4EC63
:102880000AF0030E0301AB6F960EABC3B6F3B56F40
:10289000B86B140EB76F00019DEC0AF00301AB6B2F
:1028A000AA6BAD6B140EAC6F000125DF02C0A1F363
:1028B00001C0A0F34FC0AAF30301AC6B0A0EAB6FCB
:1028C000000139EC0AF0030E0301AB6FA00EABC39D
:1028D000B6F3B56FB86B020EB76F00019DEC0AF04E
:1028E0004FC0AAF30301AC6B140EAB6F000139ECBF
:1028F0000AF0000E016E026E000C010E0301916FD2
:10290000000157DE0152F9E00301683D08D0010ED5
:10291000916F000124EC0AF001C068F30301683DE7
:1029200001D000D168C3AAF3AC6B140EAB6F0001E9
:1029300039EC0AF05CC36EF35BC36DF35EC370F3F6
:102940005DC36FF362C374F361C373F360C372F367
:102950005FC371F366C378F365C377F364C376F33B
:1029600063C375F33F0E03017A157A6FF00E791584
:10297000796F67C37AF3000131D602C07CF301C0DE
:102980007BF303017C5303E17B51280805E2280E09
:102990007B5F000E7C5B02D07C6B7B6B7E6B7D6B08
:1029A000806B7F6B030E926F6D0E916F000148EC90
:1029B00010F0140E03016927000E6A2367A30FD0DD
:1029C000040E6927000E6A23020E816F040E826FC7
:1029D000836F846B0F0E79156009796F04D00F0E29
:1029E00079155009796F1BC088F31AC087F319C095
:1029F00086F318C085F3060E5925E96E000E5A219C
:102A0000EA6EEFCF00F0ECCF01F0ECCF02F0ECCFAC
:102A100003F003C08CF302C08BF301C08AF300C043
:102A200089F38D6B060E8E6F6AC390F369C38FF3C3
:102A300090C3B1F38FC3B0F30001A3EC08F002C060
:102A400090F301C08FF3030E0301926F850E92C3C2
:102A500094F3936F966B0C0E956F0001F1EC0EF0F2
:102A600001C07DF303017D1F02C07EF37E1F7EC384
:102A70006CF37DC36BF35AC392F359C391F3060E03
:102A8000936F6AC395F369C394F30001A0DE030E4C
:102A90000301926F6D0E92C3B6F3B56FB86B140E4F
:102AA000B76F00019DEC0AF0030167A30DD0030E80
:102AB000926F810E92C3B6F3B56FB86B040EB76F09
:102AC00000019DEC0AF0030168C3AAF3AC6B140E7D
:102AD000AB6F000139EC0AF06AC392F369C391F35A
:102AE0007EEC0FF002C06CF301C06BF368C3AAF375
:102AF0000301AC6B240EAB6F000139EC0AF06CC320
:102B0000B4F38EEC0AF06BC3B4F38EEC0AF068C336
:102B1000AAF30301AC6BAB6B000139EC0AF02BECB0
:102B20000BF003010001000C03013451240DF3509C
:102B3000036A5F0F016E000E032201C04BF303C056
:102B40004CF34D6B1E0E4B25E96E000E4C21EA6EC8
:102B5000EF6A1F0E4B25016E000E4C21036E01C063
:102B600052F3536F000196DC53C3EAFF52C3E9FFEF
:102B700002C0ECFFED5201C0EFFF210E03014B2517
:102B8000E96E000E4C21EA6EEC6AED521E0EEF6EFD
:102B90000D0E3725E96E000E3821EA6EEFA41ED027
:102BA00000013BEC08F003014BC301F04CC303F000
:102BB0004BC352F34CC353F3230E4B25E96E000E67
:102BC0004C21EA6EEFA002D0000E01D0010E53C3DB
:102BD000EAFF52C3E9FFEF6E0CEF1BF0160E4B2518
:102BE000E96E000E4C21EA6EEFCF00F0ECCF01F061
:102BF000ECCF02F0ECCF03F003C042F302C041F38C
:102C000001C040F300C03FF30E0E3725E96E000E01
:102C10003821EA6EECCF03F0ED52EFCF52F303C050
:102C200053F3546B556B080E3725E96E000E3821AF
:102C3000EA6EEFCF00F0ECCF01F0ECCF02F0ECCF7A
:102C400003F000503F5D006E01504059016E02508C
:102C50004159026E03504259036E0050525D566F47
:102C600001505359576F02505459586F03505559DA
:102C7000596F100E4B25E96E000E4C21EA6EECCF19
:102C800003F0ED52EFCF00F003C001F0026A036AD7
:102C90000050565D4E6F015057594F6F02505859B2
:102CA000506F03505959516F51BF01D00AD0140EC3
:102CB0004B25E96E000E4C21EA6EEC6AED52EF6A8C
:102CC0000AD0140E4B25E96E000E4C21EA6E3BC370
:102CD000EFFF3CC3ECFF4BC3E9FF4CC3EAFFEF2C13
:102CE000C3D00D0E3725E96E000E3821EA6EEFB223
:102CF00012D000013BEC08F00D0E03013725E96E00
:102D0000000E3821EA6EEFA804D0040E4D6FD0EF0C
:102D10001AF00CEF1BF01A0E4B25016E000E4C2121
:102D200001C052F3536F040E3725E96E000E3821AF
:102D3000EA6EEFCF54F3ECCF55F3ECCF56F3ECCF74
:102D400057F339515425586F3A515521596F000E98
:102D500056215A6F000E57215B6F010E5825006EE9
:102D6000000E5921016E000E5A21026E000E5B21E9
:102D700053C3EAFF52C3E9FF00C0EFFF01C0ECFFFD
:102D800002C0ECFFEC6E1A0E4B25E96E000E4C21D2
:102D9000EA6EEFCF00F0ECCF01F0ECCF02F0ECCF19
:102DA00003F003C03EF302C03DF301C03CF300C09A
:102DB0003BF30D0E3725E96E000E3821EA6EEFB8B1
:102DC0000ED04BC3E9FF4CC3EAFF020EEF6E0001C9
:102DD0003BEC08F0120E03014D6FD0EF1AF04BC31D
:102DE000E9FF4CC3EAFF030EEF6E100E4D6F140E99
:102DF0004B25016E000E4C21036E536F0E0E3725CE
:102E0000E96E000E3821EA6EECCF03F0ED52EFCF01
:102E100054F353C3EAFF01C0E9FF03C0ECFFED52D6
:102E200054C3EFFF39513A111AE0230E4B25E96ED6
:102E3000000E4C21EA6EEF86120E4B25E96E000E55
:102E40004C21EA6E3AC3ECFFED5239C3EFFF230E7B
:102E50004B25E96E000E4C21EA6EEF8404D0000190
:102E60003BEC08F003019CD34BC3E9FF4CC3EAFFE2
:102E7000EF52D8A4CBD000013BEC08F00D0E0301BB
:102E80003725E96E000E3821EA6EEFB203D0040E4A
:102E90004D6F86D31A0E4B25016E000E4C2101C0DA
:102EA00052F3536F040E3725E96E000E3821EA6E97
:102EB000EFCF54F3ECCF55F3ECCF56F3ECCF57F301
:102EC00039515425586F3A515521596F000E5621EA
:102ED0005A6F000E57215B6F010E5825006E000ED1
:102EE0005921016E000E5A21026E000E5B2153C360
:102EF000EAFF52C3E9FF00C0EFFF01C0ECFF02C0D0
:102F0000ECFFEC6E140E4B25016E000E4C21036E8F
:102F1000536F0E0E3725E96E000E3821EA6EECCFA6
:102F200003F0ED52EFCF54F353C3EAFF01C0E9FFC2
:102F300003C0ECFFED5254C3EFFF010E4B25526F5F
:102F4000000E4C21536FEA6E52C3E9FF36C3E2FF15
:102F500035C3E1FF0A0E016EE6CFEEFF012EFCD76E
:102F60000D0E4B25016E000E4C2137C3E9FF38C30F
:102F7000EAFFECCF03F0ED52EFCF54F3EA6E01C05D
:102F8000E9FF03C0ECFFED5254C3EFFF4BC3E9FF71
:102F90004CC3EAFF020EEF6E160E4B25E96E000ED3
:102FA0004C21EA6EEE52EE52EE52EDCF03F0EDCF31
:102FB00002F0EDCF01F0EFCF00F0010EEE2605E1BB
:102FC000EE2A03E1EE2A01E1ED2A03C042F302C03A
:102FD00041F301C040F300C03FF31A0E4B25E96EE8
:102FE000000E4C21EA6EEFCF00F0ECCF01F0ECCFF9
:102FF00002F0ECCF03F003C03EF302C03DF301C08A
:103000003CF300C03BF3120E4D6FCAD21A0E4B2593
:10301000E96E000E4C21EA6EEFCF00F0ECCF01F02C
:10302000ECCF02F0ECCF03F003C046F302C045F34F
:1030300001C044F300C043F3160E4B25E96E000EA9
:103040004C21EA6EEFCF00F0ECCF01F0ECCF02F0B4
:10305000ECCF03F003C04AF302C049F301C048F3C8
:1030600000C047F3040E3725E96E000E3821EA6EE2
:10307000EFCF00F0ECCF01F0ECCF02F0ECCF03F09B
:1030800003C03EF302C03DF301C03CF300C03BF37C
:10309000026A036A39513B273A513C2302503D23CF
:1030A00003503E23160E4B25E96E000E4C21EA6EAE
:1030B000EFCF00F0ECCF01F0ECCF02F0ECCF03F05B
:1030C00003C042F302C041F301C040F300C03FF32C
:1030D000040E3725E96E000E3821EA6EEFCF52F369
:1030E000ECCF53F3ECCF54F3ECCF55F34351525D97
:1030F000D8A448D24451535DD8A444D24551545D1C
:10310000D8A440D24651555DD8A43CD24BC3E9FF68
:103110004CC3EAFFEF50020843E10D0E3725E96E7C
:10312000000E3821EA6EEFA836D01A0E4B25E96E54
:10313000000E4C21EA6E3BC3EFFF3CC3ECFF3DC3E6
:10314000ECFF3EC3ECFF4BC3E9FF4CC3EAFF030EA9
:10315000EF6E39513A111AE0230E4B25E96E000E3D
:103160004C21EA6EEF86120E4B25E96E000E4C21C3
:10317000EA6E3AC3ECFFED5239C3EFFF230E4B2545
:10318000E96E000E4C21EA6EEF8404D000013BECA6
:1031900008F0030104D000013BEC08F00301F1D179
:1031A0001A0E4B25E96E000E4C21EA6E3BC3EFFF71
:1031B0003CC3ECFF3DC3ECFF3EC3ECFF4BC3E9FF58
:1031C0004CC3EAFFEF500308D8A4E4D00D0E372516
:1031D000E96E000E3821EA6EEFA82ED0230E4B25A3
:1031E000E96E000E4C21EA6EEFB226D00F0E4B2591
:1031F000E96E000E4C21EA6EEF3C01D01DD00F0E9F
:103200004B25E96E000E4C21EA6EEFCF52F352C30C
:1032100055F3000102EC00F00F0E03014B25E96E9F
:10322000000E4C21EA6EFF0EEF6E230E4B25E96E69
:10323000000E4C21EA6EEF820D0E3725E96E000E6E
:103240003821EA6EEFA05AD0110E4D6F160E4B25A5
:10325000E96E000E4C21EA6EEE52EE52EE52EDCFC8
:1032600003F0EDCF02F0EDCF01F0EFCF00F0010E53
:10327000EE2605E1EE2A03E1EE2A01E1ED2A03C084
:1032800042F302C041F301C040F300C03FF31A0E05
:103290004B25E96E000E4C21EA6E010EEF24006E04
:1032A000000EEC20016E000EEC20026E000EEC20F1
:1032B000ED52ED52ED5200C0EFFF01C0ECFF02C035
:1032C000ECFFEC6E1A0E4B25E96E000E4C21EA6EF7
:1032D000EFCF00F0ECCF01F0ECCF02F0ECCF03F039
:1032E00003C03EF302C03DF301C03CF300C03BF31A
:1032F0004BC3E9FF4CC3EAFF090EEF6E39513A1197
:1033000044E0230E4B25E96E000E4C21EA6EEFB629
:103310001BD0230E4B25E96E000E4C21EA6EEF8682
:10332000120E4B25E96E000E4C21EA6E3AC3ECFFFB
:10333000ED5239C3EFFF230E4B25E96E000E4C21F1
:10334000EA6EEF844D8920D0160E4B25E96E000EF3
:103350004C21EA6E47C3EFFF48C3ECFF49C3ECFFC3
:103360004AC3ECFF1A0E4B25E96E000E4C21EA6EA3
:1033700043C3EFFF44C3ECFF45C3ECFF46C3ECFF80
:1033800000013BEC08F0030104D000013BEC08F025
:103390000301F7D04BC3E9FF4CC3EAFFEF50090824
:1033A00015E100013BEC08F00D0E03013725E96E35
:1033B000000E3821EA6EEFA808D04CC353F34BC37C
:1033C00052F3000157EC12F00301DBD04BC3E9FFCD
:1033D0004CC3EAFFEF5004086AE100013BEC08F03F
:1033E0000D0E03013725E96E000E3821EA6EEFA0BD
:1033F0004DD0100E4D6F1A0E4B25E96E000E4C216C
:10340000EA6E010EEF24006E000EEC20016E000E3D
:10341000EC20026E000EEC20ED52ED52ED5200C099
:10342000EFFF01C0ECFF02C0ECFFEC6E1A0E4B2563
:10343000E96E000E4C21EA6EEFCF00F0ECCF01F008
:10344000ECCF02F0ECCF03F003C03EF302C03DF33B
:1034500001C03CF300C03BF30D0E3725E96E000EB2
:103460003821EA6EEFA809D04CC353F34BC352F393
:10347000000157EC12F008D003014BC3E9FF4CC325
:10348000EAFF060EEF6E000110D003010D0E372586
:10349000E96E000E3821EA6EEFA806D04BC3E9FFB3
:1034A0004CC3EAFF050EEF6E00016AD003014BC367
:1034B000E9FF4CC3EAFFEF50050848E100013BEC8F
:1034C00008F00D0E03013725E96E000E3821EA6E73
:1034D000EFA03BD0100E4D6F1A0E4B25E96E000E7B
:1034E0004C21EA6E010EEF24006E000EEC20016EFE
:1034F000000EEC20026E000EEC20ED52ED52ED526B
:1035000000C0EFFF01C0ECFF02C0ECFFEC6E1A0E32
:103510004B25E96E000E4C21EA6EEFCF00F0ECCFA8
:1035200001F0ECCF02F0ECCF03F003C03EF302C099
:103530003DF301C03CF300C03BF34CC353F34BC31A
:1035400052F3000157EC12F003011BD04BC3E9FF0B
:103550004CC3EAFFEF50060814E100013BEC08F011
:103560000D0E03013725E96E000E3821EA6EEFA833
:1035700008D04CC353F34BC352F3000157EC12F085
:1035800003010ED000013BEC08F0100E03014D6F5B
:1035900046C33EF345C33DF344C33CF343C33BF34F
:1035A0004D533AE0020E3725E96E000E3821EA6EDF
:1035B000ECCF53F3ED52EFCF52F337C3E9FF38C3EB
:1035C000EAFFECCF55F3ED52EFCF54F336C35AF385
:1035D00035C359F353C35CF352C35BF355C35EF376
:1035E00054C35DF342C362F341C361F340C360F36C
:1035F0003FC35FF33EC366F33DC365F33CC364F36F
:103600003BC363F34DC367F3FF0E686F6A6B696B6F
:1036100000017DEC14F003010001DCEF1BF0060E4D
:1036200003010825E96E000E0921EA6EEFCF00F0D4
:10363000ECCF01F0ECCF02F0ECCF03F003C025F3A8
:1036400002C024F301C023F300C022F30AC3E9FF40
:103650000BC3EAFFEFCF00F0ECCF01F0ECCF02F0AC
:10366000ECCF03F003C029F302C028F301C027F315
:1036700000C026F32A6B060E2B6F0DC32DF30CC36F
:103680002CF32DC3B1F32CC3B0F30001A3EC08F06D
:1036900002C02DF301C02CF3030E0301356F220E7F
:1036A00035C394F3936F966B0C0E956F0001F1EC9C
:1036B0000EF001C02FF303012F1F02C030F3301FA3
:1036C0000DC392F30CC391F300017EEC0FF002C026
:1036D00032F301C031F3030132512F5D03E1315167
:1036E000305D07E000013BEC08F0010E016E6BD08D
:1036F0000301376B366B00012AEC10F0030E030157
:10370000356F0E0E35C3A0F39F6FA26B140EA16F21
:10371000000171EC08F0030E0301926F0E0E916F21
:10372000000148EC10F003011A390F0B006E003451
:10373000356F3537FC0E3517140E355D336F335149
:103740000C5D346F000E0D59356F140E345D0C6F27
:10375000000E35590D6F1A390F0B006E0034356F9E
:103760003537FC0E3517376B35C336F300012AECBD
:1037700010F0030E0301356F0E0E346F09C337F3DB
:1037800008C336F300015BEF11F001C02EF3030113
:103790002E51FE0813E02EC334F309C336F308C3D9
:1037A00035F3030E386F0E0E376F0DC33AF30CC3AB
:1037B00039F3000194EF15F004D0030100013BEC54
:1037C00008F0010E016E20EF36F0040E03016025B3
:1037D000016E000E6121036E01C062F3636F040E7F
:1037E0006025E96E000E6121EA6EECCF65F3ED52C3
:1037F000EFCF64F365C3B1F364C3B0F30001A3EC8E
:1038000008F063C3EAFF62C3E9FF02C0ECFFED52B8
:1038100001C0EFFF060E03016025016E000E61215D
:10382000036E01C062F3636F060E6025E96E000E41
:103830006121EA6EECCF65F3ED52EFCF64F365C31F
:10384000B1F364C3B0F30001A3EC08F063C3EAFF73
:1038500062C3E9FF02C0ECFFED5201C0EFFF020EB0
:1038600003016025016E000E6121036E01C062F349
:10387000636F020E6025E96E000E6121EA6EECCFE7
:1038800065F3ED52EFCF64F365C3B1F364C3B0F3F6
:103890000001A3EC08F063C3EAFF62C3E9FF02C0C2
:1038A000ECFFED5201C0EFFF000C030E0301616F4E
:1038B000140E61C3A0F39F6FA26B080EA16F0001ED
:1038C00071EC08F003015F6B5E6B0FC303F00EC376
:1038D000E9FF0FC3EAFFEFCF60F3626B140E616F75
:1038E000646B60C363F300014FEC0DF002C05DF345
:1038F00001C05CF303010EC3E9FF0FC3EAFF080E2A
:10390000EF5CEF6E0FC303F00EC3E9FF0FC3EAFFD6
:10391000EFCF60F30DC3A0F30CC39FF3A26B60C3A2
:10392000A1F3000171EC08F0030E0301616F140EA6
:10393000606F00014ADF03010AC3E9FF0BC3EAFF1E
:1039400014C3EFFF10C3E9FF11C3EAFF19C3ECFF73
:10395000ED5218C3EFFF12C3E9FF13C3EAFF1BC305
:10396000ECFFED521AC3EFFF5E515C5D03E15F5166
:103970005D5D02E0000E01D0010E016E000149EF15
:1039800036F0010E0301916F000124EC0AF001C032
:103990005CF303015C3D01D07AD05CC3AAF3AC6B4D
:1039A000140EAB6F000139EC0AF0036A03010D51EC
:1039B000080F5A6F000E03205B6F136B0AC312F3DC
:1039C000156B146B0FC317F30EC316F311C319F362
:1039D00010C318F3030EEA6E1A0EE96E0CC3E2FF71
:1039E0000BC3E1FF0D51016E04E0E6CFEEFF012EA7
:1039F000FCD7030E616F120E606F0001E6DE080E49
:103A000003010D255E6B5D6F09C392F308C391F34B
:103A1000010E936F5EC395F35DC394F30001E7EC71
:103A200013F0030E03015E6F120E5EC3B6F3B56FA3
:103A30005BC3B8F35AC3B7F300019DEC0AF003016E
:103A4000AB6B140EAA6F5BC3ADF35AC3ACF30001AA
:103A50007BEC13F002C015F301C014F35CC3AAF3AE
:103A60000301AC6B160EAB6F000139EC0AF0030ECC
:103A700003015E6F140E5EC3B6F3B56FB86B020E32
:103A8000B76F00019DEC0AF02BEC0BF00301000175
:103A900078EF36F00301136B086B08510408D8A0C7
:103AA00046D20851240DF350036A5F0F016E000ED9
:103AB000032201C00DF303C00EF3230E0D25E96EA2
:103AC000000E0E21EA6EEFB608D0230E0D25E96E2A
:103AD000000E0E21EA6EEFA801D027D20DC3E9FF38
:103AE0000EC3EAFFEF500A0812E00DC3E9FF0EC350
:103AF000EAFFEF520DE1230E0D25E96E000E0E21B7
:103B0000EA6E000EEFB0010E010B010801E10DD2CB
:103B10000DC3E9FF0EC3EAFFEF5003080DE1230ECA
:103B20000D25E96E000E0E21EA6E000EEFB0010EBB
:103B3000010B010801E1F9D100014AEC12F002C0C9
:103B40000CF301C00BF31F0E03010D25E96E000EEF
:103B50000E21EA6EECCF03F0ED52EFCF01F00C51E5
:103B6000035C04E305E101500B5D02E3000E01D0AC
:103B7000010E036A03101DE01F0E0D25E96E000EF5
:103B80000E21EA6EECCF03F0ED52EF50FF08146FF8
:103B9000FF0E0354156F0B511425166F0C51152190
:103BA000176F010E1625016E000E1721036E0150CE
:103BB00010D01F0E0D25E96E000E0E21EA6EECCF1F
:103BC00003F0ED52EF500B5D006E03500C59036E85
:103BD0000050096F03C00AF3210E0D25E96E000E97
:103BE0000E21EA6EECCF03F0ED52EFCF01F00A5157
:103BF000035C05E303E10951015C01E396D1010E89
:103C0000916F0001D9EC12F0015201E190D11F0E29
:103C100003010D25016E000E0E21036E01C014F389
:103C2000156F00014AEC12F015C3EAFF14C3E9FF57
:103C300002C0ECFFED5201C0EFFF210E03010D2584
:103C4000E96E000E0E21EA6ED890EF34026EEC346D
:103C5000036E0250ED52EF6E03C0ECFF1E0E0D25F9
:103C6000E96E000E0E21EA6EEF2A0DC3E9FF0EC3C6
:103C7000EAFF010EEF5CF70FD8B0C7D0090F0001C3
:103C80009AEF1FF0020E0301136FBFD01E0E030147
:103C90000D25E96E000E0E21EA6EEF50030803E3D6
:103CA000120E136F16D0230E0D25E96E000E0E2195
:103CB000EA6EEFA006D00DC3E9FF0EC3EAFFEF6A7C
:103CC00008D0020E136F0DC3E9FF0EC3EAFF010E09
:103CD000EF6E9BD01E0E03010D25E96E000E0E2126
:103CE000EA6EEF50030821E30F0E0D25E96E000E7A
:103CF0000E21EA6EEF3C01D013D00F0E0D25E96EB8
:103D0000000E0E21EA6EEFCF14F314C3AAF3AC6BCE
:103D1000AB6B000139EC0AF02BEC0BF004D0030183
:103D2000100E136F000128D003010F0E0D25E96E50
:103D3000000E0E21EA6EEF3C01D016D00F0E0D25BD
:103D4000E96E000E0E21EA6EEFCF14F314C355F3A3
:103D5000000102EC00F00F0E03010D25E96E000ECC
:103D60000E21EA6EFF0EEF6E110E136F0DC3E9FF09
:103D70000EC3EAFF040EEF6E030147D01E0E0301CF
:103D80000D25E96E000E0E21EA6EEF50030803E3E5
:103D9000010E136F08D00EC353F30DC352F300018D
:103DA00057EC12F0030131D00EC353F30DC352F39D
:103DB00057EC12F0030129D00EC353F30DC352F395
:103DC00057EC12F0030121D0010E0301136F0DC354
:103DD000E9FF0EC3EAFF090EEF6E17D01E0E0301B6
:103DE0000D25E96E000E0E21EA6EEF50030803E385
:103DF000010E136F08D00EC353F30DC352F300012D
:103E000057EC12F0030101D003011353D8B48DD045
:103E100013A917D0160E0D25E96E000E0E21EA6EBD
:103E2000EFCF00F0ECCF01F0ECCF02F0ECCF03F0DD
:103E300003C012F302C011F301C010F300C00FF36E
:103E400021D0160E0D25E96E000E0E21EA6EEE52FF
:103E5000EE52EE52EDCF03F0EDCF02F0EDCF01F0D8
:103E6000EFCF00F0010EEE2605E1EE2A03E1EE2A87
:103E700001E1ED2A03C012F302C011F301C010F3F7
:103E800000C00FF3010E0D25016E000E0E21036E12
:103E900001C014F3156F0B0E0D25E96E000E0E21F7
:103EA000EA6EECCF17F3ED52EFCF16F30D0E0D25A2
:103EB000E96E000E0E21EA6EECCF19F3ED52EFCF52
:103EC00018F31A0E0D25E96E000E0E21EA6EEFCFE3
:103ED0001AF3ECCF1BF3ECCF1CF3ECCF1DF303C0B4
:103EE0005AF301C059F317C35CF316C35BF319C34C
:103EF0005EF318C35DF312C362F311C361F310C321
:103F000060F30FC35FF31DC366F31CC365F31BC3EC
:103F100064F31AC363F313C367F3FF0E686F6A6B2E
:103F2000696B00017DEC14F00301082BB6D500018C
:103F300082EF36F0F2CF0EF0F29EE824F76AF73601
:103F4000590FF66E3F0EF7220A00F550FA6E080080
:103F5000F5500EBEF28EF96E843C8C3CD43C7C3D18
:103F6000A83DA83DB83DC83DDC3D03011051240DDE
:103F7000F350126B116F5F0E1125E96E000E1221C6
:103F8000EA6EEF50030802E0000E01D0010E016E50
:103F90000001000C03011051240DF350126B116F3E
:103FA000230E1125136F000E1221146F5F0E1325BF
:103FB000E96E000E1421EA6E000EEFB6010E016EDE
:103FC0000001000C03011051240DF350036A5F0F30
:103FD000016E000E032201C013F303C014F3230E7D
:103FE0001325E96E000E1421EA6EEFA651D0230EC0
:103FF0001325E96E000E1421EA6EEFA40ED0376B84
:10400000140E366F00012AEC10F0230E0301132565
:10401000E96E000E1421EA6EEF94120E1325E96E7C
:10402000000E1421EA6EECCF16F3ED52EFCF15F32C
:10403000155310E116530EE100013BEC08F0230E7E
:1040400003011325E96E000E1421EA6EEF96000EAF
:10405000016E20D0120E1325E96E000E1421EA6EB7
:10406000FF0EEF2602E2EE52ED0612C303F011C37B
:1040700015F312C316F3000168EC0FF016C3EAFF44
:1040800015C3E9FF01C0EFFF010E016E030102D06D
:10409000000E016E0001000C1DC321F31CC320F3B0
:1040A00021C303F0030120C3E9FF21C3EAFFEF525C
:1040B00031E01FC323F31EC322F323C303F022C343
:1040C000E9FF23C3EAFFEF520BE11C51205D006EB4
:1040D0001D512159036E00C001F0026E24D010D092
:1040E00020C3E9FF21C3EAFFEFCF24F323C303F08A
:1040F00022C3E9FF23C3EAFFEF50245D01E104D0AE
:10410000222BD8B4232BD9D7202BD8B4212B0001B4
:10411000C7D703011C51205D006E1D512159036E4C
:1041200000C001F0026E0001EBEF20F01DC321F38F
:104130001CC320F321C303F0030120C3E9FF21C303
:10414000EAFFEF522AE01FC323F31EC322F323C367
:1041500003F022C3E9FF23C3EAFFEF5218E020C3B4
:10416000E9FF21C3EAFFEFCF24F323C303F022C307
:10417000E9FF23C3EAFFEF50245D05E120C301F00E
:1041800021C302F00DD0222BD8B4232BE0D7202B53
:10419000D8B4212B0001CED70301000E016E026EB0
:1041A00000010CEF21F003011451151104E015C3B7
:1041B00003F0145103D04AC003F04950186F03C0F4
:1041C00019F319C31DF318C31CF317C31FF316C348
:1041D0001EF3000161D70150030118270250192373
:1041E00019C303F018C3E9FF19C3EAFFEF520AE14C
:1041F00049C0E9FF4AC0EAFF200EEF6E000E016ED3
:10420000026E27D019C31DF318C31CF317C31FF385
:1042100016C31EF300018AD702C01BF301C01AF3B4
:104220001BC303F003011AC3E9FF1BC3EAFFEF52EC
:1042300008E01AC3E9FF1BC3EAFFEF6A1A2BD8B4E0
:104240001B2B1BC34AF01AC349F018C301F019C352
:1042500002F00001000C030111C3E9FF12C3EAFFE1
:10426000EFCF15F314C303F013C3E9FF14C3EAFF40
:10427000EF50155D15E112C303F011C3E9FF03C050
:10428000EAFFEF5203E1000E016E1FD012C303F0EC
:104290001151112BD8B4122B132BD8B4142BDCD7FB
:1042A00012C303F011C3E9FF12C3EAFFEFCF15F306
:1042B00014C303F013C3E9FF14C3EAFFEF50155D05
:1042C00002E2FF0E01D0010E016E0001000C62C37C
:1042D00064F361C366F360C365F3030163510008CF
:1042E00013E266C303F065C3E9FF66C3EAFF6451E6
:1042F000EF5C05E165C301F066C302F008D0652BF1
:10430000D8B4662B6307EAD7000E016E026E000177
:10431000000C030160516203F3CF01F0F4CF00F011
:104320006303F350002661516203F3500020026ED4
:104330000001000C0301376B386B300E3A6F310E01
:104340003B6F320E3C6F330E3D6F340E3E6F350EB9
:104350003F6F360E406F370E416F380E426F390E89
:10436000436F610E446F620E456F630E466F640EBD
:10437000476F650E486F660E496F670E4A6F680E8D
:104380004B6F690E4C6F6A0E4D6F6B0E4E6F6C0E5D
:104390004F6F6D0E506F6E0E516F6F0E526F700E2D
:1043A000536F710E546F730E556F740E566F750EFA
:1043B000576F760E586F770E596F780E5A6F790EC9
:1043C0005B6F7A0E5C6F5D6B2DC332F32CC331F3E0
:1043D00032C303F031C3E9FF32C3EAFFEF502008D4
:1043E00004E1312BD8B4322BF3D732C303F031C3FD
:1043F000E9FF32C3EAFFEF502D0809E032C303F0B2
:1044000031C3E9FF32C3EAFFEF502B080BE132C39F
:1044100003F03151312BD8B4322BE96E03C0EAFFDF
:10442000EF5001D02B0E396F39512D080AE030BF03
:1044300008D0302D01D005D030BF05D03051240830
:1044400002E20BD184D030534CE0305110081FE110
:1044500032C303F031C3E9FF32C3EAFFEF50300843
:1044600016E1010E3125E96E000E3221EA6EEF50A1
:10447000780809E0010E3125E96E000E3221EA6E5E
:10448000EF50580804E1020E3127000E322330515C
:1044900008080DE132C303F031C3E9FF32C3EAFF7C
:1044A000EF50300804E1010E3127000E3223305165
:1044B000020816E132C303F031C3E9FF32C3EAFF59
:1044C000EF5030080DE1010E3125E96E000E32216A
:1044D000EA6EEF50620804E1020E3127000E32232B
:1044E00036D032C303F031C3E9FF32C3EAFFEF50E5
:1044F000300803E00A0E306F2AD0010E3125E96E34
:10450000000E3221EA6EEF50780809E0010E3125E5
:10451000E96E000E3221EA6EEF50580807E1100EE6
:10452000306F020E3127000E322311D0010E3125DB
:10453000E96E000E3221EA6EEF50620806E1020ECB
:10454000306F3127000E322302D0080E306F32C395
:1045500034F331C333F332C303F031C3E9FF32C361
:10456000EAFFEF50300804E1312BD8B4322BF3D7F7
:1045700032C303F031C3E9FF32C3EAFFEFCF5EF38A
:104580005E51400806E25E515A0803E35E5120097D
:1045900001D05E515F6F030E616F3A0E606F5FC3B3
:1045A00062F330C363F3000192DE02C036F301C050
:1045B00035F30301355302E1365349E0036A3051C4
:1045C000006EE8BE03065E6F03C05FF338C361F39D
:1045D00037C360F303C063F3626F00019ADE01C06A
:1045E0005FF33A0E0301355D006E030E3659036E1C
:1045F00000500124016E0250032201C037F303C0B2
:1046000038F3312BD8B4322B32C303F031C3E9FF76
:1046100032C3EAFFEFCF5EF35E51400806E25E511F
:104620005A0803E35E51200901D05E515F6F030E0B
:10463000616F3A0E606F5FC362F330C363F30001D2
:1046400046DE02C036F301C035F3B3D70301315162
:10465000335D13E13251345D10E12E512F1109E029
:104660002EC3E9FF2FC3EAFF2DC3ECFFED522CC38D
:10467000EFFF000E016E026E10D02E512F1109E0D7
:104680002EC3E9FF2FC3EAFF32C3ECFFED5231C363
:10469000EFFF37C301F038C302F0000113EF24F03D
:1046A0003FC341F33EC340F341C303F0030140C3A2
:1046B000E9FF41C3EAFFEF5206E0402BD8B4412B9B
:1046C0000001F2D703013E51405D006E3F51415958
:1046D000036E00C001F0026E0001000C33C338F31A
:1046E00032C337F335C33AF334C339F303013A51D4
:1046F000385D33E303E13751395D2FE23651392517
:10470000016E000E3A21036E3851035C26E303E18B
:104710000150375D22E236513727000E38233651DB
:104720003927000E3A233651000816E23751D8B423
:10473000380737073951D8B43A07390739C3E9FF81
:104740003AC3EAFFEFCF3DF338C3EAFF37C3E9FFCF
:104750003DC3EFFF3607E7D71FD0365100081CE2F4
:1047600038C303F03751372BD8B4382B3B6F03C015
:104770003CF33AC303F03951392BD8B43A2BE96EE4
:1047800003C0EAFFEFCF3DF33CC3EAFF3BC3E9FFC1
:104790003DC3EFFF3607E1D732C301F033C302F068
:1047A000000144EF24F00301296B24C326F323C343
:1047B00025F324C303F023C3E9FF24C3EAFFEFCFAB
:1047C0002AF32A5368E02A512B080CE124C303F092
:1047D0002351232BD8B4242BE96E03C0EAFF200E0B
:1047E000EF6E57D02A51250851E1010E23252C6F79
:1047F000000E24212D6F030EEA6E270EE96E2DC3E5
:10480000E2FF2CC3E1FF020E016EE6CFEEFF012EA8
:10481000FCD7030E2D6F270E2C6F2F6B2E6B100EF7
:10482000306F000187D501C02BF3030124C303F0CF
:104830002351232BD8B4242BE96E03C0EAFF2BC3EA
:10484000EFFF020E23252C6F000E24212D6F24C3B1
:104850003FF323C33EF3000123DF02C02FF301C067
:104860002EF3010E0301015C306F000E0258316F10
:1048700024C333F323C332F32DC335F32CC334F3F2
:1048800030C336F300012AD704D00301232BD8B458
:10489000242B03018ED725C301F026C302F00001AB
:1048A000000C03012CC3E9FF2DC3EAFFEFCF30F367
:1048B0002FC303F02EC3E9FF2FC3EAFFEF50305D93
:1048C00048E02DC303F02CC3E9FF2DC3EAFFEFCF6F
:1048D00031F33151400803E231515A0806E23151B7
:1048E00060084CE231517A0849E32FC303F02EC32C
:1048F000E9FF2FC3EAFFEFCF32F33251400803E262
:1049000032515A0806E23251600838E232517A08D0
:1049100035E32CC3E9FF2DC3EAFFEFCF33F32FC3F9
:1049200003F02EC3E9FF2FC3EAFF200EEF24335D0F
:1049300010E02EC3E9FF2FC3EAFFEFCF35F32DC3FD
:1049400003F02CC3E9FF2DC3EAFF200EEF24355DF1
:1049500015E12DC303F02CC3E9FF2DC3EAFFEF528D
:1049600003E1000E016E1FD02DC303F02C512C2B40
:10497000D8B42D2B2E2BD8B42F2B94D72DC303F0C6
:104980002CC3E9FF2DC3EAFFEFCF30F32FC303F0B1
:104990002EC3E9FF2FC3EAFFEF50305D02E2FF0EA6
:1049A00001D0010E016E0001000C0301146B156BA8
:1049B000166B176B13C32DF312C32CF3020E2F6F5C
:1049C000E80E2E6F00016DDF01520AE1020E036E48
:1049D000A60E0301146F03C015F3166B176B16D0E8
:1049E00013C32DF312C32CF3020E03012F6FEA0E33
:1049F0002E6F000156DF01520AE1040E036E540EC1
:104A00000301146F03C015F3166B176B000114C379
:104A100000F015C301F016C302F017C303F047EF0F
:104A200031F0006A016A03013351D89034B1002695
:104A30000032013234B300260032013234B5002690
:104A40000032013234B700260032013234B9002678
:104A50000032013234BB00260032013234BD002660
:104A60000032013234BF0026003201320001A7EFCC
:104A700025F00301316B2F6B0A0E306F2E6B2C511A
:104A80002D1103E1000E016EC3D03151312B036AA9
:104A90002C25E96E2D510320EA6EEFCF32F332510F
:104AA0002D080DE1010E2F6F3151312B036A2C259A
:104AB000E96E2D510320EA6EEFCF32F30DD0325163
:104AC0002B080AE13151312B036A2C25E96E2D5157
:104AD0000320EA6EEFCF32F332512F08D8B090D0D6
:104AE00032513908D8A08CD03251300821E1036A04
:104AF00031512C25E96E2D510320EA6EEF507808D4
:104B00000AE0036A31512C25E96E2D510320EA6E2B
:104B1000EF5058080DE1100E306F312B3151312B11
:104B2000036A2C25E96E2D510320EA6EEFCF32F394
:104B300030510A081DE132512F0819E2325139086B
:104B400016E30A0E336F2EC334F300016AD7300E1A
:104B50000301325D01242E6F3151312B036A2C2564
:104B6000E96E2D510320EA6EEFCF32F3E4D748D03F
:104B70003051100845E13251600806E232517A089E
:104B800003E33251DF0B01D03251326F32512F0823
:104B900003E23251390806E23251400831E2325123
:104BA00046082EE332512F080CE23251390809E34E
:104BB0002E39336FF00E3317300E325D33252E6FE2
:104BC00009D02E39336FF00E3317410E325D0A0FC4
:104BD00033252E6F3151312B036A2C25E96E2D516F
:104BE0000320EA6EEFCF32F33251600806E2325111
:104BF0007A0803E33251DF0B01D03251326FC6D74E
:104C00002F2D04D030510A0801E12E6D2EC301F082
:104C10000001000C28C32DF327C32CF3020E03015F
:104C20002F6FF40E2E6F00013CDE01520FE12AC3FC
:104C30002DF329C32CF31DDF01C02BF303012B53EC
:104C400003E095908C8002D095908C9028C32DF332
:104C500027C32CF3020E03012F6FF90E2E6F0001F4
:104C600020DE015207E12AC32DF329C32CF301DF13
:104C700001C02BF328C32DF327C32CF3020E03012D
:104C80002F6FFE0E2E6F00010CDE01521DE10C0E87
:104C900003012E6F000162EC03F02AC3EAFF29C36F
:104CA000E9FF000EEF1010E0EACF2DF3E9CF2CF36F
:104CB000EFCF2EF362EC03F02DC3EAFF2CC3E9FF24
:104CC000E92AD8B4EA2AEDD799EF26F01DC31FF3DD
:104CD0001CC31EF30301216B206B1CC3E9FF1DC322
:104CE000EAFFEFCF22F32251260802E022532EE101
:104CF0001CC3E9FF1DC3EAFFEF6A1FC324F31EC3F1
:104D000023F3000150DD21C324F320C323F34BDD43
:104D10001BC326F31AC325F319C324F318C323F3C3
:104D20001FC328F31EC327F321C32AF320C329F38B
:104D300071D7010E03011C251E6F000E1D211F6F70
:104D4000216B206B225301E113D00ED022513D087C
:104D50000BE11CC3E9FF1DC3EAFFEF6A010E1C252E
:104D6000206F000E1D21216F1C2BD8B41D2BB5D731
:104D70000001000C0301186B166B0A0E176F156B00
:104D8000146B1251131104E1000E016E026EE9D092
:104D90001851182B036A1225E96E13510320EA6E8D
:104DA000EFCF19F319512D080DE1010E166F1851AF
:104DB000182B036A1225E96E13510320EA6EEFCF18
:104DC00019F30DD019512B080AE11851182B036A59
:104DD0001225E96E13510320EA6EEFCF19F3195132
:104DE0002F08D8B0B0D019513908D8A0ACD019517B
:104DF000300821E1036A18511225E96E135103208E
:104E0000EA6EEF5078080AE0036A18511225E96E3D
:104E100013510320EA6EEF5058080DE1100E176F82
:104E2000182B1851182B036A1225E96E1351032011
:104E3000EA6EEFCF19F317510A0824E119512F0830
:104E400020E2195139081DE3616B0A0E606F15C32A
:104E500063F314C362F3000189EC21F0300E030107
:104E6000195D0124146F000E0220156F1851182BC4
:104E7000036A1225E96E13510320EA6EEFCF19F38E
:104E8000DDD761D0175110085EE11951600806E2C4
:104E900019517A0803E31951DF0B01D01951196F29
:104EA00019512F0803E21951390806E21951400837
:104EB0004AE21951460847E319512F0819E21951DE
:104EC000390816E314351A6F15351B6F1A371B375F
:104ED0001A371B371A371B37F00E1A17300E195DA9
:104EE0001A25016E000E1B2101C014F3156F16D098
:104EF00014351A6F15351B6F1A371B371A371B37C6
:104F00001A371B37F00E1A17410E195D0A0F1A25B2
:104F1000016E000E1B2101C014F3156F1851182BE0
:104F2000036A1225E96E13510320EA6EEF50196FE0
:104F3000600806E219517A0803E31951DF0B01D02A
:104F40001951196FADD717510A0807E1162D05D071
:104F5000141F151F142BD8B4152B14C301F015C33F
:104F600002F00001D5EF31F003011351240DF3508D
:104F7000036A5F0F016E000E032201C014F303C029
:104F800015F3230E1425E96E000E1521EA6EEFB617
:104F900003D0000E016E0DD000013BEC08F0230E93
:104FA00003011425E96E000E1521EA6EEF96010E3D
:104FB000016E0001000C03013351240DF350356BD9
:104FC000346F140E3425016E000E3521036E01502E
:104FD0005F0FE96E000E0320EA6EECCF37F3ED525F
:104FE000EFCF36F3365305E1375303E1000E016E80
:104FF00031D03351240DF350356B346F0F0E3425FF
:10500000016E000E3521036E01505F0FE96E000E38
:105010000320EA6EEF3C08D0916B0001D9EC12F04E
:105020000150030117D016D03351240DF350356BC6
:10503000346F230E3425366F000E3521376F5F0E27
:105040003625E96E000E3721EA6E000EEFB2010E32
:10505000016E00D00001000C20C322F1FFEF2CF004
:1050600003014551240DF350036A5F0F016E000EDA
:10507000032201C046F303C047F30F0E4625E96E35
:10508000000E4721EA6EEF3C03D0000E016ECBD03C
:10509000230E4625E96E000E4721EA6E000EEFB2A0
:1050A000010E010B03E1000E016EBDD0010E46257D
:1050B000016E000E4721036E01C048F3496F0B0ECD
:1050C0004625E96E000E4721EA6EECCF4BF3ED5218
:1050D000EFCF4AF30D0E4625E96E000E4721EA6E2A
:1050E000ECCF4DF3ED52EFCF4CF3160E4625E96EA3
:1050F000000E4721EA6EEFCF4EF3ECCF4FF3ECCF2B
:1051000050F3ECCF51F31A0E4625E96E000E4721FD
:10511000EA6EEFCF52F3ECCF53F3ECCF54F3ECCF76
:1051200055F30F0E4625E96E000E4721EA6EEFCFCC
:1051300056F3100E4625E96E000E4721EA6EECCFBD
:1051400058F3ED52EFCF57F303C05AF301C059F3B0
:105150004BC35CF34AC35BF34DC35EF34CC35DF3D7
:1051600051C362F350C361F34FC360F34EC35FF3A7
:1051700055C366F354C365F353C364F352C363F377
:10518000180E676F56C368F358C36AF357C369F3C1
:1051900000017DEC14F0160E03014625016E000E91
:1051A0004721036E01C048F3496FEA6E01C0E9FF71
:1051B000EFCF4AF3ECCF4BF3ECCF4CF3ECCF4DF306
:1051C000100E4625E96E000E4721EA6EECCF03F083
:1051D000ED52EFCF00F003C001F0026A036A4A51BA
:1051E00000264B5101224C5102224D51032249C34A
:1051F000EAFF48C3E9FF00C0EFFF01C0ECFF02C0B7
:10520000ECFF03C0ECFF230E4625E96E000E47219C
:10521000EA6EEF92230E4625E96E000E4721EA6EF4
:10522000EF98010E016E0001000C03013F51240DA7
:10523000F350036A5F0F016E000E032201C041F3B9
:1052400003C042F3140E4125E96E000E4221EA6EBE
:10525000ECCF46F3ED52EFCF45F3455305E146530E
:1052600003E1000E016E83D00F0E4125E96E000EA2
:105270004221EA6EEF3C39D00F0E4125016E000E3F
:105280004221036E01C045F3466F916B000124EC8F
:105290000AF046C3EAFF45C3E9FF01C0EFFF0F0E66
:1052A00003014125E96E000E4221EA6EEF3C03D076
:1052B000000E016E5CD0100E4125E96E000E4221F9
:1052C000EA6EEC6AED52EF6A0F0E4125E96E000EB0
:1052D0004221EA6EEFCF45F345C3AAF3AC6B280E2B
:1052E000AB6F000139EC0AF00301230E4125E96E92
:1052F000000E4221EA6EEF8840C3B4F300018EEC49
:105300000AF0140E03014125E96E000E4221EA6EF7
:10531000FF0EEF2602E2EE52ED06100E4125E96E79
:10532000000E4221EA6EECCF03F0ED52EFCF43F3D3
:1053300003C044F3432BD8B4442B100E4125E96E2F
:10534000000E4221EA6E44C3ECFFED5243C3EFFF6F
:10535000445102080AE2FF0A03E14351C90805E289
:105360003FC345F300017CDE0301010E016E000125
:10537000BFEF29F022C13FF33EC340F356D701509F
:10538000000CEACF29F3E9CF28F303012239F00911
:10539000246F2427E20F256F320F276F22510F0B46
:1053A000252725272727E90F266F26272627213996
:1053B0000F0B2627272726372737271F2737215167
:1053C0000F0B27272437070E236F0A0E26072727E0
:1053D000FDE325072627FDE324072527FDE3230713
:1053E0002427FDE3030EEA6E230EE96E070E28154F
:1053F000289DE926270EE95CD8B4288DEF50006E71
:1054000008E128BD06D028B915D028B702D0200E53
:1054100003D028872899300E0026EACF22F3E9CF5F
:1054200021F300C03EF30001A5DF22C3EAFF21C340
:10543000E9FF0301EE5028ADDDD7000154EF2DF058
:105440002EC333F3B8DD015204E1000E016E026E8B
:1054500073D003012E51240DF350346B336F0F0EB4
:105460003325016E000E3421036E01505F0FE96E8B
:10547000000E0320EA6EEF3C03D0306B2F6B18D088
:105480002E51240DF350346B336F100E3325016E03
:10549000000E3421036E01505F0FE96E000E0320F1
:1054A000EA6EECCF03F0ED52EFCF2FF303C030F3F1
:1054B000CA0ED8802F55316F030E3055326F2E51E2
:1054C000240DF350346B336F140E3325016E000E30
:1054D0003421036E01505F0FE96E000E0320EA6E67
:1054E000ECCF03F0ED52EFCF01F00350325D1AE341
:1054F00003E13151015C16E22E51240DF350366B5D
:10550000356F140E3525016E000E3621036E0150E5
:105510005F0FE96E000E0320EA6EECCF03F0ED5250
:10552000EF5003D032C303F03151316F03C032F377
:1055300031C301F032C302F00001000C030122C3A9
:10554000E9FF23C3EAFFECCF03F0ED52EFCF28F3DE
:1055500003C029F329C33FF328C33EF3000150ECF5
:1055600023F002C027F301C026F3030126512711BF
:1055700003E1000E016E42D022C12EF3000160DF74
:1055800002C025F301C024F303012451251103E1D6
:10559000010E016E33D02551275D07E303E126514B
:1055A000245D03E2010E2A6F05D027C325F326C32D
:1055B00024F32A6B25C303F02451D8B4250724070C
:1055C000031011E029C303F02851282BD8B4292B4C
:1055D000E96E03C0EAFFEFCF2BF32BC33EF30001CC
:1055E000C9DE0301E7D722C3E9FF23C3EAFF29C3CA
:1055F000ECFFED5228C3EFFF2AC301F00001000CBD
:1056000043C301F042C300F00066012A0900F5CF50
:10561000EEFF002EFBD7012EF9D7F86A000C03012C
:10562000356B366B3D8130C3E9FF31C3EAFFECCF08
:1056300003F0ED52EFCF37F303C038F32EC3E9FF89
:105640002FC3EAFFEFCF00F0ECCF01F0ECCF02F078
:10565000ECCF03F003C03CF302C03BF301C03AF3CC
:1056600000C039F33CC303F03BC302F03AC301F07E
:1056700039C300F0010E3927D8B03A2BD8B43B2BF0
:10568000D8B43C2B03C041F302C040F301C03FF348
:1056900000C03EF302C0F8FF01C0F7FF00C0F6FFF4
:1056A000030EEA6E330EE96E436B010E426F00018A
:1056B000A7DF03013351250841E13CC303F03BC39D
:1056C00002F03AC301F039C300F0010E3927D8B017
:1056D0003A2BD8B43B2BD8B43C2B03C041F302C0C7
:1056E00040F301C03FF300C03EF302C0F8FF01C029
:1056F000F7FF00C0F6FF030EEA6E340EE96E436B4F
:10570000010E426F00017CDF03013451250814E1D2
:105710003651385D0FE303E13751355D0BE232530B
:1057200005E0250E3E6F000125DE0301352BD8B4C0
:10573000362B01D01CD001D01AD018D0335314E02E
:105740003651385D0FE303E13751355D0BE23253DB
:1057500005E033C33EF300010DDE0301352BD8B461
:10576000362B01D004D002D03D9101D07BD73DA192
:1057700008D0FF0E3927D8A03A27D8A03B27D8A0B9
:105780003C2730C3E9FF31C3EAFF36C3ECFFED52DB
:1057900035C3EFFF2EC3E9FF2FC3EAFF39C3EFFF85
:1057A0003AC3ECFF3BC3ECFF3CC3ECFF33C301F057
:1057B0000001000C0301296B2A6B22C12EF30001AA
:1057C0003FDE02C02CF301C02BF303012B512C113F
:1057D00003E1010E016E57D022C3E9FF23C3EAFFA4
:1057E000EFCF00F0ECCF01F0ECCF02F0ECCF03F004
:1057F00003C028F302C027F301C026F300C025F33D
:10580000FF0E2A6F296F030E2F6F250E2E6F030ECA
:10581000316F290E306F326B000101DF01C024F3BC
:10582000030129512A1106E12451250803E0000E45
:10583000016E29D02C512A5D0BE303E129512B5D28
:1058400007E22CC32AF32BC329F3010E2D6F0CD0D2
:105850002451250803E1020E2D6F06D0245303E0E6
:10586000010E2D6F01D02D6B23C32FF322C32EF316
:10587000030E316F290E306F010E326F0001CFDE43
:1058800003012DC301F000012CEF2EF026C3F8FF19
:1058900025C3F7FF24C3F6FF030EEA6E280EE96E58
:1058A0000301436B010E426F0001AADE030128C30E
:1058B00001F000014EEF2EF0F3C2EAFFF2C2E9FF61
:1058C000030141C3EFFFE92AD8B4EA2AEF6A0201D3
:1058D000F22BD8B4F32B0001000C030140BF11D010
:1058E0000F0E006E3F3900160A0E005C03E2300E08
:1058F000002602D04051002600C041F30001DCDF49
:1059000003010F0E3F170A0E3F5D02E2300E02D078
:10591000409F40513F273FC341F30001CDDFC9EF16
:105920002CF003013C6B25C3E9FF26C3EAFFEF6AB5
:105930002451300A000101E037D0000E016EC25040
:10594000C30B0110C26EA60E006E002EFED7000023
:10595000C282C2B2FED7C3CF3DF30301030E0201E0
:10596000F36F280EF26F03013E6B3E510001D0EC45
:1059700000F003013E2B006E416F00019DDF0F0E12
:1059800003013E5DF2E13DC33FF3370E406F00017E
:10599000A4D7030E03013F6F280E3E6F000150ECA9
:1059A00023F001C03CF300D003013C5314E03C5110
:1059B000275D02E227C33CF326C3EAFF25C3E9FFC4
:1059C000030EE26E280EE16E3C51016E04E0E6CF5C
:1059D000EEFF012EFCD73CC301F0000181EF2EF059
:1059E000036A030114511F0FE96E010E0320EA6ED2
:1059F000EFCF1DF31DC320F300012CEF28F00301AE
:105A00001451040DF350036A230FE96E010E0320B5
:105A1000EA6EEFCF20F3ECCF21F3ECCF22F3ECCF03
:105A200023F32053D8A4DFD02153D8A4DCD02253B1
:105A3000D8A4D9D02353D8A4D6D0D8901435036A8B
:105A4000270FE96E010E0320EA6EEC6AED52EF6A51
:105A50001451040DF350036A230FE96E010E032065
:105A6000EA6E17C3EFFF18C3ECFF19C3ECFF1AC3AC
:105A7000ECFF010E0101516F0301206B2051000169
:105A80004FEC00F00301202B006E3E6F000172DC32
:105A9000090E0301205DF2E1100EE96E16C322F338
:105AA00015C321F300016DD4200E03013E6F0001E8
:105AB00061DC030115C300F01651036E05E1C80E49
:105AC000005C000112E00301010E035C05E1940E8D
:105AD000005C000115E00301010E035C05E1F40E1A
